:100000000C94E7010C940F020C940F020C940F0255
:100010000C940F020C940F020C940F020C940F021C
:100020000C940F020C940F020C940F020C94DA093A
:100030000C940F020C940F020C940F020C940F02FC
:100040000C943F090C940F020C940F020C940F02B5
:100050000C940F020C940F020C940F020C940F02DC
:100060000C940F020C940F020101FF030101F7032E
:100070006C00680000000000240027002A00000037
:100080000000250028002B000500893008023802F6
:10009000497868140000434F494E4255494E4F007D
:1000A00008083C7EE7E7E7E77E3C08087070702FA1
:1000B000F8205088434F494E4255494E4F00175340
:1000C0004400161378001613140015102000152094
:1000D0001000540A03E181867F3E186D830F0F0ED6
:1000E0000183866033186DC3198F1803C38E603384
:1000F000186DE330CF1803C39E603630CDE360CF78
:100100003006C79E7E3E30CDB360CF300CC6F66061
:100110003330D9B660CF33CFCCF66061B0DB1E6030
:10012000CF30D86CE6C061B0DB1E618F19986CC609
:10013000C063B19B0E330F0FB078C6FF7E1F1B0646
:100140001E0FF6E8DBCFC3B8AEA49B928A827B7405
:100150006E68625C57524E4945413E3A3734312E03
:100160002C29272523210A0A153A49676E6F7265E3
:10017000006D560A0A504C45415345205455524E85
:10018000204F464620004C4F572042415454455280
:100190005921200003053F213F1208120A100A0EC0
:1001A0001C0E0C1E0C141A14161F161E131E1E1BDA
:1001B0001E1E1F1E3F213F3A2F3A173D173F213F7A
:1001C000181F02040A041F0E04040E1F0A1F0A0E41
:1001D0000E1F04110E2E252E2F2A2E262929021F2E
:1001E00002081F08150E04040E150E15151B151B0D
:1001F000040604040C040000000017000300031FA1
:100200000A1F16371A1904130A153A000300000EC4
:1002100011110E000A040A040E0400300004040444
:100220000010001804031F111F121F101D151711B5
:10023000151F07041F17151D1F151D01011F1F1571
:100240001F17151F000A00003200040A110A0A0ACB
:10025000110A040115020E11171E051E1F150A0EA4
:10026000110A1F110E1F15111F05010E111D1F046C
:100270001F111F1108100F1F041B1F10101F061F36
:100280001E040F0E110E1F09060E112E1F051A1245
:100290001509011F011F101F0F180F1F0C1F1B0432
:1002A0001B031C03191513001F11030418111F0051
:1002B0000201022020200001020C121E1F120C0C51
:1002C00012120C121F0C1A14041E05242A1E1F02DF
:1002D0001C141D1020201D1F0814111F101E041EA9
:1002E0001E021C0C120C3E0A040C123E1E040214C8
:1002F000160A020F120E101E0E100E1E081E120CF1
:100300001226281E322A26041E21001F00211E0448
:100310000102013F213F172B152010204C4F414473
:10032000455200172B1620131400050038016801F0
:1003300000004500680100000A4E6F20534420630E
:10034000617264206F720A6E6F204C4F41444552B7
:100350002E4845580A0A153A45786974001D20460A
:100360006C617368696E670A20206C6F61646572E6
:100370002E2E2E0A0A444F4E2754205455524E20FA
:100380004F464621000000000023002600290004FB
:10039000040404040404040202020202020303032C
:1003A0000303030102040810204080010204081026
:1003B00020010204081020000000080002010000D3
:1003C000030407000000000000000000B014112426
:1003D0001FBECFEFD8E0DEBFCDBF11E0A0E0B1E09F
:1003E000EAEEFDE202C005900D92A832B107D9F7FE
:1003F00023E0A8E2B1E001C01D92A33CB207E1F7FF
:1004000011E0C7EED1E004C02197FE010E94E8167A
:10041000C63ED107C9F70E94B00F0C94F3160C9496
:1004200000000E94EE164F925F926F927F92EF92C1
:10043000FF920F931F93CF93DF93CDB7DEB7A197B2
:100440000FB6F894DEBF0FBECDBF7C01FA01CB0121
:1004500019A2223008F42AE08E010F5D1F4F422EB0
:10046000512C612C712CBF01A30192010E944915EE
:10047000F901CA01015011096A3014F4605D01C02C
:10048000695CD8016C93232B242B252B61F7B801D1
:10049000C7010E94C007A1960FB6F894DEBF0FBE39
:1004A000CDBFDF91CF911F910F91FF90EF907F9083
:1004B0006F905F904F9008954F925F926F927F92EE
:1004C0008F929F92AF92BF92CF92DF92EF92FF9264
:1004D0000F931F93CF93DF9300D000D01F92CDB71F
:1004E000DEB74091BC035091BD036091BE03709193
:1004F000BF032FB7F8948091320190913301A091FE
:100500003401B09135012FBF481B590B6A0B7B0B8F
:100510008091BB0390E0A0E0B0E00091B7031091A0
:10052000B8032091B9033091BA0384179507A60741
:10053000B70730F4011511052105310509F036C35F
:10054000012B022B032B09F02FC380915303815001
:100550008E3F18F580915203813021F5809166031A
:100560008F5F6091670387FD09C0082E000C990B0F
:1005700070E06F5F7F4F0E94C016682F6093660324
:1005800083E293E09093C1038093C00388E4809357
:10059000C20381E693E00E94890980915303815050
:1005A0008E3F70F480915103813009F0ABC386E136
:1005B00093E09093C1038093C00388E48093C203C7
:1005C00080E00E94DA0D80916203882309F4ADC0B7
:1005D000809176038111A9C080916E0390916F0381
:1005E000E0917303F0917403EE0FFF1FE80FF91F02
:1005F000459154914115510501F520917203222333
:1006000031F01092740310927303FC0114C0109225
:10061000620380916103882341F080E00E94DA0D3B
:10062000E0917303F09174032FC060E081E693E0E2
:100630000E94A9097AC0459154919A01369527954F
:100640003695279540FF51C0CA0116E096958795CB
:100650001A95E1F78F71952F9695969596959051ED
:100660002F70223071F1F8F4211117C08B3008F08F
:100670008AE080937703E0917303F09174033196DD
:10068000F0937403E0937303EE0FFF1F80916E03EA
:1006900090916F03E80FF91FCECF213061F760E032
:1006A0000E94470EE8CF2330B1F0243021F720918B
:1006B0006503829F802D112480937E0390937F0396
:1006C000DACF20916503829F802D112480937A03D5
:1006D00090937B03D0CF20916503829F802D1124BE
:1006E00080937C0390937D03C6CF2F732093750373
:1006F00080916503859F802D11248093760310924D
:100700008603109285031092840381E0809378031E
:1007100080932D011092790380917303909174035B
:1007200001969093740380937303809178038823D8
:1007300009F4F3C080917603811106C060E081E680
:1007400093E00E94A909E9C08150809376038091CB
:100750008603811148C020918403309185032F5F67
:100760003F4FC901880F991FE0918003F0918103E9
:10077000E80FF91F65917491862F87708093870326
:10078000AB01E3E056954795EA95E1F7CA019695E6
:100790008795972F96959695909388038F73909150
:1007A0006503899F802D11248093860341704093B7
:1007B000310130938503209384038091820390E07C
:1007C0002817390780F020918303222339F0821BF8
:1007D0009109909385038093840305C060E081E6CE
:1007E00093E00E94A909809186038150809386033B
:1007F0008091790321E0280F2093790340917503BC
:1008000030918803340F80916D03380F3093630368
:1008100060917C03662371F070E0822F022E000C41
:10082000990B0E94C01680917D03869F300D112484
:10083000309363038091630390E0849664E270E0F8
:100840000E94C01680936303309177033093640352
:1008500060917A03662381F0062E000C770B822FBD
:10086000022E000C990B0E94C01680917B03869F7C
:10087000300D11243093640360917E036623A1F050
:10088000822F220F990B70E00E94C016CB0162E00C
:1008900070E00E94C01620917F0390916403289F0E
:1008A000900D112490936403809164034F3341F0C1
:1008B0008A300CF089E087FD80E08093640302C0F9
:1008C00010926403F894E0916303F0E0EE5BFE4F56
:1008D000E491E09330013091640320918903320365
:1008E00090011124409187034203C001439F900D62
:1008F00011240090660302C0880F991F0A94E2F742
:1009000097FF02C081589F4F880F892F881F990B2E
:1009100080932F0180932E0178948091C2038823C5
:1009200009F48DC08C3020F49CE0E92EE81A01C057
:10093000E12CFF24F394F09292031092AA031092F8
:10094000AB0330918F034DE2D42E1D2D131B1E0DD2
:1009500003E0030F2EE4412F63E08AE893E03D8338
:100960000E94BE0B3D810CEF030F1D5F202F41E065
:10097000612F80E50E94180F202F42E0612F83E055
:100980000E94180FF092AA03F092AB0300918F031C
:1009900013E0100FD01ADE0C23E04D2D622F8AE8F1
:1009A00093E02D830E94660B2D812F5F2135A9F7DF
:1009B0001D0DFF24FA94F10E23E04F2D622F8AE8DB
:1009C00093E02D830E94660B2D812F5F2135A9F7BF
:1009D000035033E0D30E402F6D2D80E00E94000FB6
:1009E000402F6D2D83E50E94000F41E06D2D83E0C7
:1009F0000E94820E42E06D2D80E50E94820E14500E
:100A000044E0612F80E50E94820E48E0612F83E080
:100A10000E94820E84E08093930380918F03E81AF2
:100A20008E2D815D809394038091C0039091C103CA
:100A30000E94740D8091C20381508093C203809103
:100A4000580390915903892B09F486C011E0109343
:100A5000AA031092AB0390918E0385E5891B8093C6
:100A600093031092940360915503613009F455C0CB
:100A700030F080915403653008F067C062C060E0D8
:100A800081E693E00E94A9091092620310939203F9
:100A9000E4E9F1E0E491EF5FE0938E03E5E9F1E052
:100AA000E491EF5FE0938F0386E991E09093A903CF
:100AB0008093A80310925903109258031092900348
:100AC00018EA0E945C028823E1F386E891E00E9424
:100AD000740D409156035091570360E070E02AE096
:100AE0008AE893E00E94130281E791E00E94740D6E
:100AF000412F42954F7050E060E070E02AE08AE8B4
:100B000093E00E94130286E691E00E94740D8091AA
:100B10005103813009F0FCC01FC08091AD0390915A
:100B2000AE03A091AF03B091B0038F709927AA27AD
:100B3000BB270897A105B10510F467E009C068E775
:100B400007C0882349F06B5F03C0882329F06FE258
:100B50008AE893E00E94B9070E94340D80919003C7
:100B600081110EC088EF91E0ECE3F1E0DF019C0120
:100B70001D9221503040E1F710929303109294039C
:100B80000E94E0086093B7037093B8038093B903A1
:100B90009093BA032091B3033091B403621B730B9B
:100BA0007093B2036093B10380E0CCC02FB7F89488
:100BB0008091320190913301A0913401B0913501BF
:100BC0002FBF2091BB03820F911DA11DB11D8093EA
:100BD000BC039093BD03A093BE03B093BF03809169
:100BE000AD039091AE03A091AF03B091B003019615
:100BF000A11DB11D8093AD039093AE03A093AF03ED
:100C0000B093B0031092B7031092B8031092B903D7
:100C10001092BA030E94E0086093B3037093B40388
:100C20008093B5039093B60380913D0390913E036A
:100C30002FE0289F8001299F100D112485E10E943B
:100C4000C908800F911F24E0969587952A95E1F7B2
:100C500090933E0380933D0320913C03222309F4AB
:100C60004BC060914003262F30E040E050E02983E4
:100C70003A834B835C83C0904103D12CE12CF12C4F
:100C800040914403509145034A01A12CB12C20917D
:100C90004203309143032901612C712C8217930781
:100CA00028F09C014817590708F49A01C901A0E0EF
:100CB000B0E09C01AD012419350946095709698145
:100CC0007A818B819C816C197D098E099F090E9414
:100CD000A416A501940124193509460957090E9453
:100CE0001715C20ED31EE41EF51EC0923F036C2DD5
:100CF00070E085E00E946A080E94C10C0E94730F98
:100D000081E020C0893209F05BCC0E94A50D58CC4F
:100D1000115009F0D6CE60E070E085E00E946A08CC
:100D200083B7817F846083BF83B7816083BF83B7CC
:100D3000816083BF889583B78E7F83BF83B78E7FA3
:100D400083BFBFCE0F900F900F900F900F90DF9149
:100D5000CF911F910F91FF90EF90DF90CF90BF90B8
:100D6000AF909F908F907F906F905F904F9008957D
:100D7000CF92DF92EF92FF921F93CF93DF93EC011C
:100D800081E080939203109291031092900310924D
:100D900054038093AA038093AB031CE00E945C027F
:100DA0008823E1F3FE01849122ED30E040E060E031
:100DB0008AE893E00E94240A10929303109394030C
:100DC000CE010E94740D80918E03982F990F890F88
:100DD00081958D5A8093930380918F03982F990F5B
:100DE000890F8195835D809394038091AD0384FF87
:100DF00003C08EEC90E002C08AEC90E00E94950D5A
:100E000080918E03982F990F890F81958D5A809329
:100E10009303809194038F5F809394038091660382
:100E2000882319F086EC90E002C082EC90E00E94EA
:100E3000950D90918E03892F880F980F91959D5A4B
:100E400090939303809194038F5F809394038EEB30
:100E500090E00E94950D809152038130B1F4809111
:100E600066038F5F6091670387FD09C0082E000C41
:100E7000990B70E06F5F7F4F0E94C016682F6093E0
:100E8000660381E693E00E948909809151038130D5
:100E9000A9F08091AC03482F50E060E070E0C09072
:100EA000AD03D090AE03E090AF03F090B003C41652
:100EB000D506E606F706D8F08F3FC9F08FEF80938E
:100EC000AC0360E081E693E00E94A90910926203FE
:100ED00081E693E00E94BA0981E080935403DF9198
:100EE000CF911F91FF90EF90DF90CF900895809168
:100EF0005303813009F052CF0E94A50D4FCFCF92FE
:100F0000DF92EF92FF920F931F93CF93DF936C01C9
:100F10007A018B01C0E0D0E0CE15DF0589F0D80161
:100F20006D918D01D601ED91FC910190F081E02D44
:100F3000C6010995892B11F47E0102C02196ECCFE0
:100F4000C701DF91CF911F910F91FF90EF90DF903C
:100F5000CF90089580912D01882319F080912E0162
:100F600001C080E08093B4000895089580E090E08F
:100F70000895DC01ED91FC910190F081E02D099440
:100F80006115710579F0FB0101900020E9F73197B7
:100F9000AF01461B570BDC01ED91FC910280F38100
:100FA000E02D099480E090E00895833081F028F4EA
:100FB000813099F08230A1F008958730A9F088300F
:100FC000B9F08430D1F4809180008F7D03C080918E
:100FD00080008F7780938000089584B58F7702C05A
:100FE00084B58F7D84BD08958091B0008F7703C054
:100FF0008091B0008F7D8093B00008951F93CF93B0
:10100000DF93282F30E0F901E954FC4F8491F90176
:10101000ED55FC4FD491F901E157FC4FC491CC231D
:10102000C9F0162F81110E94D507EC2FF0E0EE0FCA
:10103000FF1FE258FF4FA591B4918FB7F89411119B
:1010400005C09C91ED2FE095E92302C0EC91ED2BBA
:10105000EC938FBFDF91CF911F910895CF93DF93D2
:1010600090E0FC01ED55FC4F2491FC01E157FC4F51
:101070008491882361F190E0880F991FFC01EC585E
:10108000FF4FC591D491FC01E258FF4FA591B49157
:10109000611109C09FB7F8948881209582238883C5
:1010A000EC912E230BC0623061F49FB7F894388125
:1010B000822F809583238883EC912E2B2C939FBFC6
:1010C00006C08FB7F894E8812E2B28838FBFDF915D
:1010D000CF9108951F93CF93DF93182FEB0161E019
:1010E0000E942E08209711F460E004C0CF3FD10584
:1010F00039F461E0812FDF91CF911F910C94FE07AD
:10110000E12FF0E0E954FC4FE491E330F9F048F4CA
:10111000E130B9F0E230A1F584B5806284BDC8BD8C
:1011200034C0E730E9F0E83019F1E43049F5809156
:101130008000806280938000D0938B00C0938A00EF
:1011400024C084B5806884BDC7BD1FC08091800065
:10115000806880938000D0938900C093880015C078
:101160008091B00080688093B000C093B3000DC040
:101170008091B00080628093B000C093B40005C03D
:10118000C038D1050CF0B5CFAFCFDF91CF911F9113
:1011900008958E3008F08E508770806480937C00B4
:1011A00080917A00806480937A0080917A0086FD35
:1011B000FCCF809178002091790090E0922B0895E7
:1011C0003FB7F8948091380190913901A0913A018C
:1011D000B0913B0126B5A89B05C02F3F19F00196A1
:1011E000A11DB11D3FBFBA2FA92F982F8827820FAD
:1011F000911DA11DB11DBC01CD0142E0660F771FFD
:10120000881F991F4A95D1F708958F929F92AF92A8
:10121000BF92CF92DF92EF92FF926B017C010E940E
:10122000E0084B015C01C114D104E104F104F1F0C8
:101230000E94E008DC01CB0188199909AA09BB09C1
:10124000883E9340A105B10570F321E0C21AD10890
:10125000E108F10888EE880E83E0981EA11CB11CFD
:10126000C114D104E104F10419F7DDCFFF90EF9030
:10127000DF90CF90BF90AF909F908F9008951F9276
:101280000F920FB60F9211242F933F938F939F933A
:10129000AF93BF938091320190913301A0913401BB
:1012A000B09135013091370123E0230F2D3720F421
:1012B0000196A11DB11D05C026E8230F0296A11DB0
:1012C000B11D209337018093320190933301A09395
:1012D0003401B09335018091380190913901A0918A
:1012E0003A01B0913B010196A11DB11D80933801D7
:1012F00090933901A0933A01B0933B01BF91AF9114
:101300009F918F913F912F910F900FBE0F901F9043
:101310001895CF93DF93EC011F8A1D8A1CA21BA294
:10132000188E10922E0110922F0110922D010E9402
:10133000AA0782E393E09E878D871B8A1A8A81E041
:10134000898389E08E8B198E1B8E1D8EDF91CF9144
:101350000895FC0161110DC0178A158A14A213A209
:10136000108E10922E0110922F0110922D010C94CC
:10137000AA070895CF93DF93EC011F8A1D8A1CA250
:101380001BA2188E10922E0110922F0110922D0187
:101390000E94AA078AE293E09E878D871B8A1A8A99
:1013A00081E0898389E08E8B198E1B8E1D8EDF91E3
:1013B000CF9108951F920F920FB60F9211242F9381
:1013C0003F934F935F936F937F938F939F93AF93CD
:1013D000BF93EF93FF9360912F01662321F18091DA
:1013E00036018F5F80933601909130018917D8F0D4
:1013F00090912D0181E0892780932D011092360173
:1014000080913101882369F080910C0193E4899FD8
:10141000802D1124895B80930C010E94B416909357
:101420002E010E94AA07FF91EF91BF91AF919F916A
:101430008F917F916F915F914F913F912F910F907D
:101440000FBE0F901F9018954F925F926F927F92F0
:101450008F929F92AF92BF92CF92DF92EF92FF92C4
:101460000F931F93CF93DF93F901C490319654915A
:10147000EC0108A164350CF018C10C2C000CDD083F
:10148000A62F062E000CBB0B7D01EC0CFD1C1E14C0
:101490001F040CF00AC140330CF007C1A52E842EA6
:1014A000042E000C9908F401E50FF11D57FDFA9583
:1014B0001E161F060CF0F9C02E5F3F4FE60127965F
:1014C000D7FD279673E0D595C7957A95E1F747FF45
:1014D0000AC0A52EA40EC89DA001C99D500D1124BF
:1014E000241B350B40E0EA2D0A2C000CFF0BE40F07
:1014F000F11D47FDFA95F1971CF050E3A52EA41AB3
:1015000067FD60E0F701E535F10514F0E4E5F0E092
:101510007E2FFC01D484D426862F062E000C990B36
:10152000FC01EA1BFB0BDF017F01F7E0EF22FF2448
:10153000E0E8F0E002C0F595E795EA94E2F71E2FA7
:10154000B7FD179653E0B595A7955A95E1F72A0F81
:101550003B1FE42FE77051E001C0550FEA95EAF711
:10156000459545954595B4E54B02800D911D112497
:10157000845C9E4FC12C0A2C000CBB0899249394C8
:101580002E015524EC2DF0E0EA15FB050CF08DC082
:10159000F90144910130E1F47C01A12F862E881AD3
:1015A000B82DBE0DB71708F077C0B42FBA2321F0BD
:1015B000E701B881B52BB883B0E0B595A795109732
:1015C00019F431964491A0E8DFEFED1AFD0AE8CF57
:1015D00001111FC0752E70947C01A12FF901862E78
:1015E000881AB82DBE0DB71708F056C0B42FBA230D
:1015F00021F0E701B881B721B883B0E0B595A79590
:10160000109719F431964491A0E8DFEFED1AFD0A26
:10161000E8CF033031F07C01A12FF901862E881A22
:1016200037C0752E7094862E7C01A12FF901871684
:10163000D8F4B42FBA2359F0E701B881682C6D248F
:1016400060FE02C0B52B02C0B721E701B883B0E04D
:10165000B595A795109719F431964491A0E8839415
:10166000DFEFED1AFD0AE3CFD92416C0B42FBA2359
:1016700021F0E701B881B527B883B0E0B595A7950B
:10168000109719F431964491A0E8DFEFED1AFD0AA6
:10169000B82DBE0DB71750F3550F19F48C5A9F4F44
:1016A00051E0C394240D351D6DCFDF91CF911F9173
:1016B0000F91FF90EF90DF90CF90BF90AF909F90F1
:1016C0008F907F906F905F904F900895FC016435EC
:1016D00008F053C0403308F050C090A1742F7595A6
:1016E00075957595262F062E000C330B542F5770C9
:1016F0009230A1F4F901E45CFE4F84E57802E00D3C
:10170000F11D1124808190E0052E02C095958795EA
:101710000A94E2F78095982F91700AC0933041F4B3
:1017200084858170462740954170841303C014C09E
:10173000911112C084E57802200D311D1124F901A8
:10174000E45CFE4F81E090E001C0880F5A95EAF713
:1017500080959081892310C084E57802200D311D89
:101760001124F901E45CFE4F81E090E001C0880F94
:101770005A95EAF79081892B80830895BF92CF9282
:10178000DF92EF92FF920F931F93CF93DF931F92FD
:10179000CDB7DEB77C01D62EC42E002E000C110B67
:1017A000040F111D47FD1A954C2D0C2C000C550BE8
:1017B000401751077CF4B12CB21654F46B2D6D0D0B
:1017C0004C2DC70129830E94660BB3942981F4CF65
:1017D000C394EACF0F90DF91CF911F910F91FF90AB
:1017E000EF90DF90CF90BF9008956F927F928F928D
:1017F0009F92AF92BF92CF92DF92EF92FF920F93A0
:101800001F93CF93DF93EC016A3019F42D819885F3
:10181000A1C06D3009F4A4C01885BA84D98488A009
:1018200083E58D150CF47FC08FE28B150CF47BC023
:101830008C8190E00197189F9001199F300D112421
:10184000C9018D0D911DD7FC9A95181619060CF03B
:101850006AC08D81819FC00111248B0D911DB7FC41
:101860009A95181619060CF05EC09D2CCD2CE62E0C
:10187000F12CEC2DED190E2E000CFF0B8C8190E05D
:10188000E817F9070CF04EC00197E817F90779F04F
:10189000E89E9001E99E300DF89E300D1124E20F74
:1018A000F31F8E8D9F8DE80FF91F749001C0712C6E
:1018B0006B2CAB2C2A2D2B19022E000C330B8D8197
:1018C00090E0281739075CF570FE10C0113031F434
:1018D0004A2D6C2DCE010E94660B1DC0012F212FB9
:1018E000462D692DCE010E94BE0B15C089A198A17D
:1018F000891789F088A3113031F44A2D6C2DCE015F
:101900000E94660B07C0012F212F462D692DCE01A5
:101910000E94BE0B88A27694A394610ECBCFC39491
:10192000910EA7CF88A228853C818985329F800DA2
:10193000112489879F81992399F0082E000C990B17
:1019400044E550E0239F40195109112448175907D5
:101950003CF49D818A85299F800D11248A871986F0
:1019600081E090E0DF91CF911F910F91FF90EF9078
:10197000DF90CF90BF90AF909F908F907F906F90AF
:101980000895CF92DF92EF92FF920F931F93CF9320
:10199000DF93C6E4D3E00DE413E0FF24FA9497E06C
:1019A000E92EE00E62E088810E942E08288130E056
:1019B000F901E954FC4F8491F901ED55FC4FC490B5
:1019C000F901E157FC4FD490DD2071F081110E94A4
:1019D000D507ED2DF0E0EE0FFF1FEB57FC4FA59163
:1019E000B491EC91EC21B1F4F80180818F5F808398
:1019F00060E088810E942E0821960F5F1F4FE01241
:101A0000D1CFDF91CF911F910F91FF90EF90DF9099
:101A1000CF900895F8018081882371F3F8018F3FFA
:101A200011F41082E5CFF082E3CFCF93C82FF89462
:101A300060E0809199030E94FE0780919A03181636
:101A40001CF460E00E94FE07CEBD00000DB407FE4E
:101A5000FDCF8EB580919A0318161CF461E00E94A8
:101A6000FE077894CF9108950F931F93CF938091A1
:101A700096038F5F809396030CE311E0C0E08C2FF8
:101A800080640E94150D80E80E94150D61E0809130
:101A900099030E94FE0780919A0318161CF460E0D7
:101AA0000E94FE0780E090E0F801E80FF91F208116
:101AB0002EBD00000DB407FEFDCF2EB50196843576
:101AC000910591F780919A0318161CF461E00E9429
:101AD000FE07CF5F0C5A1F4FC63089F680E4CF91C6
:101AE0001F910F910C94150D0F931F93CF93DF93BC
:101AF0008C01C0E0D0E0F801EC0FFD1F649166237B
:101B000071F0E0918A03F0918B030190F081E02D58
:101B10008AE893E00995892B11F02196ECCFCE014C
:101B2000DF91CF911F910F910895CF93DF930E9482
:101B3000740DEC016DE171E08AE893E00E94C0074A
:101B40008C0F9D1FDF91CF91089588EF91E0ECE31A
:101B5000F1E0DF019C011D9221503040E1F710922D
:101B60009303109294038DE593E00E94740D0E94FC
:101B7000340D8CB583608CBD8DB58E7F8DBD80E2BC
:101B800091E0EEEFFFE309951092900388E393E074
:101B90000E94950D0E94340D0E94C10C809151034A
:101BA000813039F062E370E080E090E00E94050946
:101BB000F3CF0895AF92BF92CF92DF92EF92FF9250
:101BC0000F931F93CF93DF93C82ED12CE601C45CF3
:101BD000DC4F9DA1992309F44FC07E019FEFE91AC4
:101BE000F90AF70195A1911147C09EA58601000F42
:101BF000111F045C1C4FF80134A525A5E32FF22F1B
:101C0000E90FF11DE90FF11D259134912F3FFFEFF1
:101C10003F0711F41DA230C039ABF601EE0FFF1FD4
:101C2000EA5BFC4F3327220F331F05A0F6A1E02DFE
:101C3000E20FF31FA590B49081111AC060E081E615
:101C400093E00E94A909F801B3AAA2AAF601EE0F37
:101C5000FF1FE25BFC4F16A215A281E0F70185A3EE
:101C600089E08BAF1EAEFE017B9615A2329615A2BF
:101C700029968DA18F5F8DA3DF91CF911F910F9139
:101C8000FF90EF90DF90CF90BF90AF90089570E0FD
:101C9000DB01AA0FBB1FA45CBC4FD4962C91D49738
:101CA000D5969C91D597E22FF92FE80FF11DE80FFB
:101CB000F11D259134915F9696963C932E939597BE
:101CC000F9018591949190916503989F802D11243D
:101CD000645C7C4FFB01B19685A3F901A591B49199
:101CE0004B2F50E0E82FF0E04E175F0720F4F9018A
:101CF00025913491832FFB01B296899F802D112469
:101D000085A30895AF92BF92CF92DF92EF92FF9298
:101D10000F931F93CF93DF93182F062FC1E0D3E0CB
:101D20008AEFD82E9EEFE92E842F8470C82E842F40
:101D30008270B82E842F8870A82E4170F42E8C2FBC
:101D4000880F8F5FE80ECC2081F04D2F400F6C2F55
:101D5000610F8AE893E00E94660B4C2F400F6D2FB5
:101D6000610F8AE893E00E94660BBB2081F0402F50
:101D70004D1B6C2F610F8AE893E00E94660B402F89
:101D80004C1B6D2F610F8AE893E00E94660BAA201E
:101D900081F04C2F400F612F6D1B8AE893E00E9469
:101DA000660B4D2F400F612F6C1B8AE893E00E9459
:101DB000660BFF2081F0402F4C1B612F6D1B8AE8C2
:101DC00093E00E94660B402F4D1B612F6C1B8AE82D
:101DD00093E00E94660BCD1744F4E7FC04C0D15099
:101DE000D394D394ED0CCF5FAACFDF91CF911F9105
:101DF0000F91FF90EF90DF90CF90BF90AF9008953C
:101E00000F931F93CF93DF93182F062FD42FC0E08B
:101E1000CD174CF44C2F400F612F8AE893E00E94BD
:101E2000660BCF5FF5CFDF91CF911F910F91089592
:101E30009F92AF92BF92CF92DF92EF92FF920F9359
:101E40001F93CF93DF93F82EE62EB22E03E0020FFE
:101E5000D0E0C3E08AEFC82E1EEF842F8170982E49
:101E6000AA24A394A20E4270D42EDF5F802F8B1978
:101E7000180F992081F04C2F440F4A0D6E2D6C1BCA
:101E80008D2F8F0D0E94000F402F6E2D6D1B8C2FFC
:101E90008F0D0E94000FDD2081F04C2F440F4A0D62
:101EA0006E2D6C1B8F2D8D1B0E94000F402F6E2DF1
:101EB0006D1B8F2D8C1B0E94000FDC1744F417FD47
:101EC00004C0C150C394C3941C0D0E5FCECFDF91EC
:101ED000CF911F910F91FF90EF90DF90CF90BF9027
:101EE000AF909F9008958091580390915903892B4A
:101EF000B1F1809160038F7169F584E10E94C90896
:101F0000BC01990F880B990B0E94AB1526EE3FE39D
:101F10004EEC50E40E940F160E947A159B017093BC
:101F2000570360935603672B91F084E08093550329
:101F3000E8E5F3E080E0419151912417350718F46A
:101F40008093550308958F5F8430A9F703C08FEF06
:101F500080935503809160038F5F809360030895A1
:101F6000CF93DF9300D000D000D0CDB7DEB7789408
:101F700084B5826084BD84B5816084BD85B582608E
:101F800085BD85B5816085BD80916E00816080933F
:101F90006E001092810080918100826080938100A8
:101FA00080918100816080938100809180008160B8
:101FB000809380008091B10084608093B100809113
:101FC000B00081608093B00080917A00846080933B
:101FD0007A0080917A00826080937A0080917A0002
:101FE000816080937A0080917A00806880937A0083
:101FF0001092C10082E38093BB0381E090E0A0E0F7
:10200000B0E08093B7039093B803A093B903B09363
:10201000BA038FEF8093AC03E0E8F7E725913491A2
:102020002130304C09F049C0E6E9F7E7E491E0934C
:102030009503E7E9F7E7E491E0934003E8E9F7E780
:10204000E491E0934103E9E9F7E785919491909356
:10205000430380934203EBE9F7E7859194919093D2
:1020600045038093440387E080936703EEE9F7E735
:10207000E491E0936603EFE9F7E7E491E093AC03C2
:10208000E0EAF7E785919491909359038093580380
:10209000E2EAF7E78591949190935B0380935A036A
:1020A000E4EAF7E78591949190935D0380935C0354
:1020B000E6EAF7E7859194912CC09CE39093950311
:1020C000109240038093410380E293E09093430396
:1020D0008093420384ED93E09093450380934403FF
:1020E00087E080936703809366038CEA9DE090937A
:1020F0005903809358038EED9DE090935B0380938A
:102100005A0384E79EE090935D0380935C038CE325
:102110009FE090935F0380935E0311E010933C0374
:102120006FEF70E085E00E946A0888E080934603C4
:1021300089E08093470387E08093480386E080939B
:10214000490304E000934A0382E080934B0381E15A
:1021500080934C030E94C10C8CE39FE09093570343
:102160008093560300935503109360038BE0809394
:1021700098038DE08093970380E1809399038EE02C
:1021800080939B038FE080939A03109392031093A4
:10219000AA031092AB0310939103E4E9F1E0E491F8
:1021A000EF5FE0938E03E5E9F1E0E491EF5FE09308
:1021B0008F0386E991E09093A9038093A8031FB74A
:1021C000F89480912801811127C0E9E9F3E0849116
:1021D000EDEAF3E09491E82FF0E0EE0FFF1FEC58EA
:1021E000FF4FA591B491EC91E92321F461E08AE0DD
:1021F0000E94FE0761E08AE00E942E088CB5806193
:102200008CBD8CB580648CBD61E08DE00E942E0891
:1022100061E08BE00E942E08809128018F5F8093FF
:1022200028011FBF8CB58F7D8CBD8CB58C7F8160E4
:102230008CBD8DB581608DBD8CB58C608CBD61E031
:10224000809198030E942E0861E0809197030E947C
:102250002E0861E0809199030E942E0880919B03D3
:1022600018161CF461E00E942E0880919A0318163B
:102270001CF461E00E942E0880919B03181674F4F0
:1022800060E00E94FE076AE070E080E090E00E945B
:10229000050961E080919B030E94FE0780919703EE
:1022A000082E000C990BFC01E157FC4FE491F0E083
:1022B000EE0FFF1FE258FF4F2591349130939F039B
:1022C00020939E03FC01ED55FC4FE491E093A503A0
:1022D00080919803082E000C990BFC01E157FC4FEC
:1022E000E491F0E0EE0FFF1FE258FF4F259134918B
:1022F00030939D0320939C03FC01ED55FC4FE4912A
:10230000E093A40380919A03082E000C990BFC0122
:10231000E157FC4FE491F0E0EE0FFF1FE258FF4F52
:10232000259134913093A1032093A003FC01ED5536
:10233000FC4FE491E093A60380919903082E000CD2
:10234000990BFC01E157FC4FE491F0E0EE0FFF1F09
:10235000E258FF4F259134913093A3032093A203B9
:10236000FC01ED55FC4FE491E093A70381E20E944C
:10237000150D84E10E94150D8091950387FF03C020
:102380008FE7809395038091950380680E94150DD7
:1023900080E20E94150D8CE00E94150D0E94340D04
:1023A00011E01093650384E08093890380E790E057
:1023B000909371038093700360E080E00E94470E69
:1023C00061E070E083E00E946A088091B100887F3C
:1023D00081608093B100F894109280001092810087
:1023E000109285001092840088E191E0909389001A
:1023F0008093880080918100886080938100809123
:10240000810081608093810080916F008260809361
:102410006F0078940E94730F80915203813019F4F9
:10242000109266031EC0809155038823C9F360E0B3
:1024300081E693E00E94A90988E890E090936F03F9
:1024400080936E03109274031092730310936203CF
:1024500089E08093770310927A0310927C031092A4
:102460007E038091AC03882321F086E990E00E94EE
:10247000B806A0E82A2E312C44244394512C0E9403
:102480005C02882309F4FBC150920B0140920A01BF
:1024900050920901409208018091510381508E3F72
:1024A00008F4F5C180914F038F3F11F080FDFAC110
:1024B00080914D038F3F11F080FD0BC2809150033E
:1024C0008F3F11F080FD1CC280914E038F3F11F0B1
:1024D00080FD29C280915303813041F48091AC0387
:1024E000882321F084EB90E00E94B80680910601D9
:1024F0009091070197FF04C0109207011092060106
:1025000080910601909107018035910534F08FE4A8
:1025100090E09093070180930601809104019091CF
:10252000050197FF04C010920501109204018091EB
:10253000040190910501899734F088E290E090932E
:102540000501809304016091020170910301A09143
:102550000001B09101018091040190910501209149
:10256000060130910701EAEAF0E08490912CEBEA51
:10257000F0E0A490E0EAF0E04491E1EAF0E0E491D8
:102580007901E80CF91CAE15BF050CF0BFC03D0188
:10259000640E711C261537050CF0B8C0B12C6C0107
:1025A000CA0CDB1C6C157D050CF0B0C08B010E0F46
:1025B000111D801791070CF0A9C02A173B070CF0DA
:1025C000CCC1FD01E21BF30B861797070CF0BEC1CF
:1025D000AB01481B590BE614F7041CF04301821AA7
:1025E000930AC016D1061CF05801A81AB90A3E2F4A
:1025F0002A1B861B042F10E00A151B050CF086C051
:10260000932F582F540FC52ED12CE92EF12CE814FE
:10261000F9040CF0A0C1EAEAF0E0A491E3E0F5943B
:10262000E794EA95E1F7B0E01796F3E0B595A79542
:10263000FA95E1F70A9FB0010B9F700D1A9F700D7C
:102640001124F701E60FF71FE455FF4FE491F0E086
:10265000592F5770710102C0F594E7945A95E2F72B
:10266000EE21FF21EF2B09F474C1E0EAF0E0A49120
:10267000522F590FE52FF0E063E0F595E7956A9545
:10268000E1F7B0E0179673E0B595A7957A95E1F775
:10269000CA9EB001CB9E700DDA9E700D1124E60F1C
:1026A000F71FEE55FF4FE491F0E05770B10102C003
:1026B000759567955A95E2F7E623F723EF2B09F412
:1026C00048C18091290190912A01019690932A0195
:1026D000809329010E9409152DE430E040E050E08C
:1026E0000E94171570930101609300010E94091563
:1026F00029E230E040E050E00E941715709303019A
:102700006093020181E693E00E94BA0920912B01B7
:102710005091040170910601211109C02AEA30E0AC
:10272000452F672F8AE893E00E94240A79C0EAEADD
:10273000F0E09491EBEAF0E06490C92ED12C7601A0
:10274000F7E0EF0EF11C83E0F594E7948A95E1F74A
:102750001D82A62CB12C91509E833D81832F330F77
:10276000990B8C159D050CF05BC00D8107FD095F71
:102770000595059505958D81877887FF03C0815064
:10278000886F8F5F410102C0959487948A95E2F724
:10279000712C002E000C110B0E5F1F4F3E818D819E
:1027A000381B3983872D072C000C990B8A159B0544
:1027B0009CF58E9DF0018F9DF00D9E9DF00D1124D6
:1027C000E00FF11FE655FF4FE491F0E0E821F92119
:1027D000EF2B01F1222361F0322F337020FF02C072
:1027E000698101C06D8121FF07C0462D471905C0D1
:1027F000472D6D8130E001C0472D670F450F8AE8F6
:1028000093E03A835B837C830E94660B3A81232F9B
:102810007C815B817394C6CF3D813F5F3D839DCFBB
:1028200020EA30E040910201609100018AE893E0E3
:102830000E94240AC0902901D0902A010D2C000C7E
:10284000EE08FF08F7FE0EC06DE28AE893E00E94F2
:10285000B90744275527BA014C195D096E097F094C
:102860002AE003C02AE0B701A6018AE893E00E94AB
:1028700013026DE171E08AE893E00E94C00780E0F6
:1028800090E0892B09F4FBCD0E940000F8CD84E094
:1028900090E090930B0180930A019093090180933B
:1028A000080100CE209106013091070180910A01B4
:1028B00090910B01820F931F909307018093060163
:1028C00081E693E00E94890910922C0110922B015D
:1028D000EFCD809106019091070120910A0130917E
:1028E0000B01821B930B909307018093060181E6F5
:1028F00093E00E94890950922C0140922B01DECD79
:102900002091040130910501809108019091090105
:10291000820F931F909305018093040181E693E059
:102920000E948909D1CD80910401909105012091E7
:10293000080130910901821B930B9093050180934C
:10294000040181E693E00E948909C4CD40E050E093
:1029500042CE9F5F5ACE4F5F4DCEE0E0F0E034CEE6
:1029600010928D0310928C0385E191E090938B037C
:1029700080938A0308958F929F92AF92BF92CF92D5
:10298000DF92EF92FF92CF93DF93EC016881798120
:102990008A819B81611571058105910521F464E2AD
:1029A00079ED8BE597E02DE133EF41E050E00E94B7
:1029B000171549015A019B01AC01A7EAB1E40E9435
:1029C00036156B017C01ACEEB4EFA50194010E94B9
:1029D0004415DC01CB018C0D9D1DAE1DBF1DB7FF45
:1029E00003C00197A109B04888839983AA83BB8358
:1029F000BC01CD019F77DF91CF91FF90EF90DF90E9
:102A0000CF90BF90AF909F908F9008950E94BB147D
:102A100008958DE091E00E94BB14089560930D012C
:102A200070930E0180930F01909310010895052E6D
:102A300097FB1EF400940E942E1557FD07D00E94AC
:102A4000491507FC03D04EF40C942E155095409573
:102A5000309521953F4F4F4F5F4F0895909580954A
:102A6000709561957F4F8F4F9F4F08950E946B1512
:102A7000A59F900DB49F900DA49F800D911D1124D2
:102A80000895B7FF0C9436150E943615821B930BE0
:102A90000895A1E21A2EAA1BBB1BFD010DC0AA1F9F
:102AA000BB1FEE1FFF1FA217B307E407F50720F0B7
:102AB000A21BB30BE40BF50B661F771F881F991F32
:102AC0001A9469F760957095809590959B01AC017B
:102AD000BD01CF010895A29FB001B39FC001A39F84
:102AE000700D811D1124911DB29F700D811D112447
:102AF000911D08950E94EE1588F09F5798F0B92F08
:102B00009927B751B0F0E1F0660F771F881F991F22
:102B10001AF0BA95C9F714C0B13091F00E940816A6
:102B2000B1E008950C940816672F782F8827B85FB6
:102B300039F0B93FCCF3869577956795B395D9F77A
:102B40003EF490958095709561957F4F8F4F9F4F84
:102B50000895E89409C097FB3EF490958095709590
:102B600061957F4F8F4F9F4F9923A9F0F92F96E9D9
:102B7000BB279395F695879577956795B795F1114E
:102B8000F8CFFAF4BB0F11F460FF1BC06F5F7F4FEB
:102B90008F4F9F4F16C0882311F096E911C07723FD
:102BA00021F09EE8872F762F05C0662371F096E806
:102BB000862F70E060E02AF09A95660F771F881FD5
:102BC000DAF7880F9695879597F9089557FD9058ED
:102BD000440F551F59F05F3F71F04795880F97FBE1
:102BE000991F61F09F3F79F087950895121613069B
:102BF0001406551FF2CF4695F1DF08C016161706CA
:102C00001806991FF1CF86957105610508940895FE
:102C1000E894BB2766277727CB0197F908950E9490
:102C200022160C9493160E94851638F00E948C167A
:102C300020F0952311F00C947C160C94821611242C
:102C40000C9409160E94E61570F3959FC1F3950F39
:102C500050E0551F629FF001729FBB27F00DB11D20
:102C6000639FAA27F00DB11DAA1F649F6627B00DB0
:102C7000A11D661F829F2227B00DA11D621F739F99
:102C8000B00DA11D621F839FA00D611D221F749FA7
:102C90003327A00D611D231F849F600D211D822FEE
:102CA000762F6A2F11249F5750409AF0F1F0882315
:102CB0004AF0EE0FFF1FBB1F661F771F881F915042
:102CC0005040A9F79E3F510580F00C947C160C945F
:102CD00009165F3FE4F3983ED4F3869577956795A0
:102CE000B795F795E7959F5FC1F7FE2B880F911D6C
:102CF0009695879597F9089597F99F6780E870E012
:102D000060E008959FEF80EC089500240A94161661
:102D1000170618060906089500240A9412161306C9
:102D2000140605060895092E0394000C11F4882357
:102D300052F0BB0F40F4BF2B11F460FF04C06F5F73
:102D40007F4F8F4F9F4F0895DB018F939F930E947A
:102D50003615BF91AF91A29F800D911DA39F900D3D
:102D6000B29F900D11240895991B79E004C0991F1A
:102D7000961708F0961B881F7A95C9F780950895D5
:102D800097FB072E16F4009407D077FD09D00E9418
:102D9000D41607FC05D03EF4909581959F4F089579
:102DA000709561957F4F0895AA1BBB1B51E107C029
:102DB000AA1FBB1FA617B70710F0A61BB70B881FCB
:102DC000991F5A95A9F780959095BC01CD0108955A
:102DD000EE0FFF1F0590F491E02D099481E090E043
:0A2DE000F8940C94F316F894FFCF5A
:102DEA000A000A0018002A0001000100010100007F
:102DFA000000000000F50B7F07B607B5070D0A00B3
:082E0A004C4F41444552000009
:00000001FF
